:100000000C9434000C943E000C943E000C943E0082
:100010000C943E000C943E000C943E000C943E0068
:100020000C943E000C943E000C943E000C943E0058
:100030000C943E000C943E000C943E000C943E0048
:100040000C943E000C943E000C943E000C943E0038
:100050000C943E000C943E000C943E000C943E0028
:100060000C943E000C943E0011241FBECFEFD8E04C
:10007000DEBFCDBF0E945A000C9477000C940000A4
:100080001092C50087E68093C40086E08093C2008A
:1000900088E18093C10008958091C0008823E4F72F
:1000A0008091C60008959091C00095FFFCCF809389
:1000B000C600089584B1806284B90E94400084E53E
:1000C0000E9453002FEF83ED90E321508040904039
:1000D000E1F700C000000E944C002FEF81EE94E099
:1000E000215080409040E1F700C00000E8CFF89434
:0200F000FFCF40
:00000001FF
